{
  "_format": "hh-sol-artifact-1",
  "contractName": "BatchTracker",
  "sourceName": "contracts/BatchTracker.sol",
  "abi": [
    {
      "inputs": [
        {
          "internalType": "address",
          "name": "admin",
          "type": "address"
        }
      ],
      "stateMutability": "nonpayable",
      "type": "constructor"
    },
    {
      "inputs": [],
      "name": "AccessControlBadConfirmation",
      "type": "error"
    },
    {
      "inputs": [
        {
          "internalType": "address",
          "name": "account",
          "type": "address"
        },
        {
          "internalType": "bytes32",
          "name": "neededRole",
          "type": "bytes32"
        }
      ],
      "name": "AccessControlUnauthorizedAccount",
      "type": "error"
    },
    {
      "anonymous": false,
      "inputs": [
        {
          "indexed": true,
          "internalType": "bytes32",
          "name": "batchId",
          "type": "bytes32"
        },
        {
          "indexed": true,
          "internalType": "address",
          "name": "farmer",
          "type": "address"
        },
        {
          "indexed": false,
          "internalType": "string",
          "name": "metadataURI",
          "type": "string"
        }
      ],
      "name": "BatchCreated",
      "type": "event"
    },
    {
      "anonymous": false,
      "inputs": [
        {
          "indexed": true,
          "internalType": "bytes32",
          "name": "batchId",
          "type": "bytes32"
        },
        {
          "indexed": false,
          "internalType": "string",
          "name": "reportHash",
          "type": "string"
        },
        {
          "indexed": false,
          "internalType": "string",
          "name": "status",
          "type": "string"
        }
      ],
      "name": "LabReportAdded",
      "type": "event"
    },
    {
      "anonymous": false,
      "inputs": [
        {
          "indexed": true,
          "internalType": "bytes32",
          "name": "batchId",
          "type": "bytes32"
        },
        {
          "indexed": false,
          "internalType": "string",
          "name": "metadataURI",
          "type": "string"
        }
      ],
      "name": "ProcessingEventAdded",
      "type": "event"
    },
    {
      "anonymous": false,
      "inputs": [
        {
          "indexed": true,
          "internalType": "bytes32",
          "name": "role",
          "type": "bytes32"
        },
        {
          "indexed": true,
          "internalType": "bytes32",
          "name": "previousAdminRole",
          "type": "bytes32"
        },
        {
          "indexed": true,
          "internalType": "bytes32",
          "name": "newAdminRole",
          "type": "bytes32"
        }
      ],
      "name": "RoleAdminChanged",
      "type": "event"
    },
    {
      "anonymous": false,
      "inputs": [
        {
          "indexed": true,
          "internalType": "bytes32",
          "name": "role",
          "type": "bytes32"
        },
        {
          "indexed": true,
          "internalType": "address",
          "name": "account",
          "type": "address"
        },
        {
          "indexed": true,
          "internalType": "address",
          "name": "sender",
          "type": "address"
        }
      ],
      "name": "RoleGranted",
      "type": "event"
    },
    {
      "anonymous": false,
      "inputs": [
        {
          "indexed": true,
          "internalType": "bytes32",
          "name": "role",
          "type": "bytes32"
        },
        {
          "indexed": true,
          "internalType": "address",
          "name": "account",
          "type": "address"
        },
        {
          "indexed": true,
          "internalType": "address",
          "name": "sender",
          "type": "address"
        }
      ],
      "name": "RoleRevoked",
      "type": "event"
    },
    {
      "inputs": [],
      "name": "DEFAULT_ADMIN_ROLE",
      "outputs": [
        {
          "internalType": "bytes32",
          "name": "",
          "type": "bytes32"
        }
      ],
      "stateMutability": "view",
      "type": "function"
    },
    {
      "inputs": [],
      "name": "LAB_ROLE",
      "outputs": [
        {
          "internalType": "bytes32",
          "name": "",
          "type": "bytes32"
        }
      ],
      "stateMutability": "view",
      "type": "function"
    },
    {
      "inputs": [],
      "name": "PROCESSOR_ROLE",
      "outputs": [
        {
          "internalType": "bytes32",
          "name": "",
          "type": "bytes32"
        }
      ],
      "stateMutability": "view",
      "type": "function"
    },
    {
      "inputs": [
        {
          "internalType": "bytes32",
          "name": "batchId",
          "type": "bytes32"
        },
        {
          "internalType": "string",
          "name": "reportHash",
          "type": "string"
        },
        {
          "internalType": "string",
          "name": "status",
          "type": "string"
        }
      ],
      "name": "addLabReport",
      "outputs": [],
      "stateMutability": "nonpayable",
      "type": "function"
    },
    {
      "inputs": [
        {
          "internalType": "bytes32",
          "name": "batchId",
          "type": "bytes32"
        },
        {
          "internalType": "string",
          "name": "metadataURI",
          "type": "string"
        }
      ],
      "name": "addProcessingEvent",
      "outputs": [],
      "stateMutability": "nonpayable",
      "type": "function"
    },
    {
      "inputs": [
        {
          "internalType": "bytes32",
          "name": "",
          "type": "bytes32"
        }
      ],
      "name": "batches",
      "outputs": [
        {
          "internalType": "bytes32",
          "name": "batchId",
          "type": "bytes32"
        },
        {
          "internalType": "address",
          "name": "farmer",
          "type": "address"
        },
        {
          "internalType": "string",
          "name": "metadataURI",
          "type": "string"
        },
        {
          "internalType": "bool",
          "name": "exists",
          "type": "bool"
        }
      ],
      "stateMutability": "view",
      "type": "function"
    },
    {
      "inputs": [
        {
          "internalType": "bytes32",
          "name": "batchId",
          "type": "bytes32"
        },
        {
          "internalType": "address",
          "name": "farmer",
          "type": "address"
        },
        {
          "internalType": "string",
          "name": "metadataURI",
          "type": "string"
        }
      ],
      "name": "createBatch",
      "outputs": [],
      "stateMutability": "nonpayable",
      "type": "function"
    },
    {
      "inputs": [
        {
          "internalType": "bytes32",
          "name": "role",
          "type": "bytes32"
        }
      ],
      "name": "getRoleAdmin",
      "outputs": [
        {
          "internalType": "bytes32",
          "name": "",
          "type": "bytes32"
        }
      ],
      "stateMutability": "view",
      "type": "function"
    },
    {
      "inputs": [
        {
          "internalType": "bytes32",
          "name": "role",
          "type": "bytes32"
        },
        {
          "internalType": "address",
          "name": "account",
          "type": "address"
        }
      ],
      "name": "grantRole",
      "outputs": [],
      "stateMutability": "nonpayable",
      "type": "function"
    },
    {
      "inputs": [
        {
          "internalType": "bytes32",
          "name": "role",
          "type": "bytes32"
        },
        {
          "internalType": "address",
          "name": "account",
          "type": "address"
        }
      ],
      "name": "hasRole",
      "outputs": [
        {
          "internalType": "bool",
          "name": "",
          "type": "bool"
        }
      ],
      "stateMutability": "view",
      "type": "function"
    },
    {
      "inputs": [
        {
          "internalType": "bytes32",
          "name": "role",
          "type": "bytes32"
        },
        {
          "internalType": "address",
          "name": "callerConfirmation",
          "type": "address"
        }
      ],
      "name": "renounceRole",
      "outputs": [],
      "stateMutability": "nonpayable",
      "type": "function"
    },
    {
      "inputs": [
        {
          "internalType": "bytes32",
          "name": "role",
          "type": "bytes32"
        },
        {
          "internalType": "address",
          "name": "account",
          "type": "address"
        }
      ],
      "name": "revokeRole",
      "outputs": [],
      "stateMutability": "nonpayable",
      "type": "function"
    },
    {
      "inputs": [
        {
          "internalType": "bytes4",
          "name": "interfaceId",
          "type": "bytes4"
        }
      ],
      "name": "supportsInterface",
      "outputs": [
        {
          "internalType": "bool",
          "name": "",
          "type": "bool"
        }
      ],
      "stateMutability": "view",
      "type": "function"
    }
  ],
  "bytecode": "0x608060405234801561001057600080fd5b50604051610e03380380610e0383398101604081905261002f91610143565b61003a600082610097565b506100657f373fdac787be5578b9a3d4a9ca3e3ae1e632ab5ee4750e92f65223238a15b2ef82610097565b506100907fe61decff6e4a5c6b5a3d3cbd28f882e595173563b49353ce5f31dba2de7f05ee82610097565b5050610173565b6000828152602081815260408083206001600160a01b038516845290915281205460ff16610139576000838152602081815260408083206001600160a01b03861684529091529020805460ff191660011790556100f13390565b6001600160a01b0316826001600160a01b0316847f2f8788117e7eff1d82e926ec794901d17c78024a50270940304540a733656f0d60405160405180910390a450600161013d565b5060005b92915050565b60006020828403121561015557600080fd5b81516001600160a01b038116811461016c57600080fd5b9392505050565b610c81806101826000396000f3fe608060405234801561001057600080fd5b50600436106100cf5760003560e01c80638222bdb21161008c578063b092c81511610066578063b092c815146101bd578063bd3070c6146101d0578063c81e25ab146101f7578063d547741f1461021a57600080fd5b80638222bdb21461017b57806391d14854146101a2578063a217fddf146101b557600080fd5b806301ffc9a7146100d4578063248a9ca3146100fc5780632f2ff15d1461012d57806336568abe146101425780636701737d146101555780637dc96f2414610168575b600080fd5b6100e76100e236600461080a565b61022d565b60405190151581526020015b60405180910390f35b61011f61010a36600461083b565b60009081526020819052604090206001015490565b6040519081526020016100f3565b61014061013b366004610870565b610264565b005b610140610150366004610870565b61028f565b6101406101633660046108e5565b6102c7565b61014061017636600461093f565b610436565b61011f7fe61decff6e4a5c6b5a3d3cbd28f882e595173563b49353ce5f31dba2de7f05ee81565b6100e76101b0366004610870565b6104f9565b61011f600081565b6101406101cb3660046109b9565b610522565b61011f7f373fdac787be5578b9a3d4a9ca3e3ae1e632ab5ee4750e92f65223238a15b2ef81565b61020a61020536600461083b565b6105df565b6040516100f39493929190610a05565b610140610228366004610870565b61069e565b60006001600160e01b03198216637965db0b60e01b148061025e57506301ffc9a760e01b6001600160e01b03198316145b92915050565b60008281526020819052604090206001015461027f816106c3565b61028983836106d0565b50505050565b6001600160a01b03811633146102b85760405163334bd91960e11b815260040160405180910390fd5b6102c28282610762565b505050565b60008481526001602052604090206003015460ff16156103255760405162461bcd60e51b8152602060048201526014602482015273426174636820616c72656164792065786973747360601b60448201526064015b60405180910390fd5b6040518060800160405280858152602001846001600160a01b0316815260200183838080601f0160208091040260200160405190810160405280939291908181526020018383808284376000920182905250938552505060016020938401819052888352808452604092839020855181559385015190840180546001600160a01b0319166001600160a01b039092169190911790555082015160028201906103cd9082610b14565b50606091909101516003909101805460ff19169115159190911790556040516001600160a01b0384169085907f85ae3272c4c0d9853bff19915074258fcd0c09af3de77705b3b4fbd0639b78f2906104289086908690610bfd565b60405180910390a350505050565b7f373fdac787be5578b9a3d4a9ca3e3ae1e632ab5ee4750e92f65223238a15b2ef610460816106c3565b60008681526001602052604090206003015460ff166104b35760405162461bcd60e51b815260206004820152600f60248201526e10985d18da081b9bdd08199bdd5b99608a1b604482015260640161031c565b857f56e02afb5c53973a5d4fcf42b1c737ae479a9b963e36e26898a9dc499b2e8576868686866040516104e99493929190610c19565b60405180910390a2505050505050565b6000918252602082815260408084206001600160a01b0393909316845291905290205460ff1690565b7fe61decff6e4a5c6b5a3d3cbd28f882e595173563b49353ce5f31dba2de7f05ee61054c816106c3565b60008481526001602052604090206003015460ff1661059f5760405162461bcd60e51b815260206004820152600f60248201526e10985d18da081b9bdd08199bdd5b99608a1b604482015260640161031c565b837f44daa2ca7e79807f143cc2a652d3c246964de33cbe0279b48c403ac69018be5384846040516105d1929190610bfd565b60405180910390a250505050565b60016020819052600091825260409091208054918101546002820180546001600160a01b03909216929161061290610a8a565b80601f016020809104026020016040519081016040528092919081815260200182805461063e90610a8a565b801561068b5780601f106106605761010080835404028352916020019161068b565b820191906000526020600020905b81548152906001019060200180831161066e57829003601f168201915b5050506003909301549192505060ff1684565b6000828152602081905260409020600101546106b9816106c3565b6102898383610762565b6106cd81336107cd565b50565b60006106dc83836104f9565b61075a576000838152602081815260408083206001600160a01b03861684529091529020805460ff191660011790556107123390565b6001600160a01b0316826001600160a01b0316847f2f8788117e7eff1d82e926ec794901d17c78024a50270940304540a733656f0d60405160405180910390a450600161025e565b50600061025e565b600061076e83836104f9565b1561075a576000838152602081815260408083206001600160a01b0386168085529252808320805460ff1916905551339286917ff6391f5c32d9c69d2a47ea670b442974b53935d1edc7fd64eb21e047a839171b9190a450600161025e565b6107d782826104f9565b6108065760405163e2517d3f60e01b81526001600160a01b03821660048201526024810183905260440161031c565b5050565b60006020828403121561081c57600080fd5b81356001600160e01b03198116811461083457600080fd5b9392505050565b60006020828403121561084d57600080fd5b5035919050565b80356001600160a01b038116811461086b57600080fd5b919050565b6000806040838503121561088357600080fd5b8235915061089360208401610854565b90509250929050565b60008083601f8401126108ae57600080fd5b50813567ffffffffffffffff8111156108c657600080fd5b6020830191508360208285010111156108de57600080fd5b9250929050565b600080600080606085870312156108fb57600080fd5b8435935061090b60208601610854565b9250604085013567ffffffffffffffff81111561092757600080fd5b6109338782880161089c565b95989497509550505050565b60008060008060006060868803121561095757600080fd5b85359450602086013567ffffffffffffffff8082111561097657600080fd5b61098289838a0161089c565b9096509450604088013591508082111561099b57600080fd5b506109a88882890161089c565b969995985093965092949392505050565b6000806000604084860312156109ce57600080fd5b83359250602084013567ffffffffffffffff8111156109ec57600080fd5b6109f88682870161089c565b9497909650939450505050565b8481526000602060018060a01b038616602084015260806040840152845180608085015260005b81811015610a485786810183015185820160a001528201610a2c565b50600060a0828601015260a0601f19601f83011685010192505050821515606083015295945050505050565b634e487b7160e01b600052604160045260246000fd5b600181811c90821680610a9e57607f821691505b602082108103610abe57634e487b7160e01b600052602260045260246000fd5b50919050565b601f8211156102c2576000816000526020600020601f850160051c81016020861015610aed5750805b601f850160051c820191505b81811015610b0c57828155600101610af9565b505050505050565b815167ffffffffffffffff811115610b2e57610b2e610a74565b610b4281610b3c8454610a8a565b84610ac4565b602080601f831160018114610b775760008415610b5f5750858301515b600019600386901b1c1916600185901b178555610b0c565b600085815260208120601f198616915b82811015610ba657888601518255948401946001909101908401610b87565b5085821015610bc45787850151600019600388901b60f8161c191681555b5050505050600190811b01905550565b81835281816020850137506000828201602090810191909152601f909101601f19169091010190565b602081526000610c11602083018486610bd4565b949350505050565b604081526000610c2d604083018688610bd4565b8281036020840152610c40818587610bd4565b97965050505050505056fea264697066735822122040217fb876af7f15eb347e93726ce451e369773d76d92361d51791392911da8b64736f6c63430008180033",
  "linkReferences": {},
  "deployedLinkReferences": {}
}