{
  "_format": "hh-sol-artifact-1",
  "contractName": "Certification",
  "sourceName": "contracts/Certification.sol",
  "abi": [
    {
      "inputs": [
        {
          "internalType": "address",
          "name": "admin",
          "type": "address"
        }
      ],
      "stateMutability": "nonpayable",
      "type": "constructor"
    },
    {
      "inputs": [],
      "name": "AccessControlBadConfirmation",
      "type": "error"
    },
    {
      "inputs": [
        {
          "internalType": "address",
          "name": "account",
          "type": "address"
        },
        {
          "internalType": "bytes32",
          "name": "neededRole",
          "type": "bytes32"
        }
      ],
      "name": "AccessControlUnauthorizedAccount",
      "type": "error"
    },
    {
      "anonymous": false,
      "inputs": [
        {
          "indexed": true,
          "internalType": "bytes32",
          "name": "batchId",
          "type": "bytes32"
        },
        {
          "indexed": false,
          "internalType": "string",
          "name": "certHash",
          "type": "string"
        },
        {
          "indexed": false,
          "internalType": "string",
          "name": "certType",
          "type": "string"
        },
        {
          "indexed": false,
          "internalType": "uint256",
          "name": "validUntil",
          "type": "uint256"
        }
      ],
      "name": "CertificateAdded",
      "type": "event"
    },
    {
      "anonymous": false,
      "inputs": [
        {
          "indexed": true,
          "internalType": "bytes32",
          "name": "batchId",
          "type": "bytes32"
        },
        {
          "indexed": false,
          "internalType": "uint256",
          "name": "index",
          "type": "uint256"
        },
        {
          "indexed": false,
          "internalType": "string",
          "name": "reasonHash",
          "type": "string"
        }
      ],
      "name": "CertificateRevoked",
      "type": "event"
    },
    {
      "anonymous": false,
      "inputs": [
        {
          "indexed": true,
          "internalType": "bytes32",
          "name": "role",
          "type": "bytes32"
        },
        {
          "indexed": true,
          "internalType": "bytes32",
          "name": "previousAdminRole",
          "type": "bytes32"
        },
        {
          "indexed": true,
          "internalType": "bytes32",
          "name": "newAdminRole",
          "type": "bytes32"
        }
      ],
      "name": "RoleAdminChanged",
      "type": "event"
    },
    {
      "anonymous": false,
      "inputs": [
        {
          "indexed": true,
          "internalType": "bytes32",
          "name": "role",
          "type": "bytes32"
        },
        {
          "indexed": true,
          "internalType": "address",
          "name": "account",
          "type": "address"
        },
        {
          "indexed": true,
          "internalType": "address",
          "name": "sender",
          "type": "address"
        }
      ],
      "name": "RoleGranted",
      "type": "event"
    },
    {
      "anonymous": false,
      "inputs": [
        {
          "indexed": true,
          "internalType": "bytes32",
          "name": "role",
          "type": "bytes32"
        },
        {
          "indexed": true,
          "internalType": "address",
          "name": "account",
          "type": "address"
        },
        {
          "indexed": true,
          "internalType": "address",
          "name": "sender",
          "type": "address"
        }
      ],
      "name": "RoleRevoked",
      "type": "event"
    },
    {
      "inputs": [],
      "name": "CERTIFIER_ROLE",
      "outputs": [
        {
          "internalType": "bytes32",
          "name": "",
          "type": "bytes32"
        }
      ],
      "stateMutability": "view",
      "type": "function"
    },
    {
      "inputs": [],
      "name": "DEFAULT_ADMIN_ROLE",
      "outputs": [
        {
          "internalType": "bytes32",
          "name": "",
          "type": "bytes32"
        }
      ],
      "stateMutability": "view",
      "type": "function"
    },
    {
      "inputs": [
        {
          "internalType": "bytes32",
          "name": "batchId",
          "type": "bytes32"
        },
        {
          "internalType": "string",
          "name": "certHash",
          "type": "string"
        },
        {
          "internalType": "string",
          "name": "certType",
          "type": "string"
        },
        {
          "internalType": "uint256",
          "name": "validUntil",
          "type": "uint256"
        }
      ],
      "name": "addCertificate",
      "outputs": [],
      "stateMutability": "nonpayable",
      "type": "function"
    },
    {
      "inputs": [
        {
          "internalType": "bytes32",
          "name": "batchId",
          "type": "bytes32"
        }
      ],
      "name": "getCertificates",
      "outputs": [
        {
          "components": [
            {
              "internalType": "bytes32",
              "name": "batchId",
              "type": "bytes32"
            },
            {
              "internalType": "string",
              "name": "certHash",
              "type": "string"
            },
            {
              "internalType": "string",
              "name": "certType",
              "type": "string"
            },
            {
              "internalType": "uint256",
              "name": "validUntil",
              "type": "uint256"
            },
            {
              "internalType": "bool",
              "name": "revoked",
              "type": "bool"
            },
            {
              "internalType": "string",
              "name": "revokeReasonHash",
              "type": "string"
            }
          ],
          "internalType": "struct Certification.Certificate[]",
          "name": "",
          "type": "tuple[]"
        }
      ],
      "stateMutability": "view",
      "type": "function"
    },
    {
      "inputs": [
        {
          "internalType": "bytes32",
          "name": "role",
          "type": "bytes32"
        }
      ],
      "name": "getRoleAdmin",
      "outputs": [
        {
          "internalType": "bytes32",
          "name": "",
          "type": "bytes32"
        }
      ],
      "stateMutability": "view",
      "type": "function"
    },
    {
      "inputs": [
        {
          "internalType": "bytes32",
          "name": "role",
          "type": "bytes32"
        },
        {
          "internalType": "address",
          "name": "account",
          "type": "address"
        }
      ],
      "name": "grantRole",
      "outputs": [],
      "stateMutability": "nonpayable",
      "type": "function"
    },
    {
      "inputs": [
        {
          "internalType": "bytes32",
          "name": "role",
          "type": "bytes32"
        },
        {
          "internalType": "address",
          "name": "account",
          "type": "address"
        }
      ],
      "name": "hasRole",
      "outputs": [
        {
          "internalType": "bool",
          "name": "",
          "type": "bool"
        }
      ],
      "stateMutability": "view",
      "type": "function"
    },
    {
      "inputs": [
        {
          "internalType": "bytes32",
          "name": "role",
          "type": "bytes32"
        },
        {
          "internalType": "address",
          "name": "callerConfirmation",
          "type": "address"
        }
      ],
      "name": "renounceRole",
      "outputs": [],
      "stateMutability": "nonpayable",
      "type": "function"
    },
    {
      "inputs": [
        {
          "internalType": "bytes32",
          "name": "batchId",
          "type": "bytes32"
        },
        {
          "internalType": "uint256",
          "name": "index",
          "type": "uint256"
        },
        {
          "internalType": "string",
          "name": "reasonHash",
          "type": "string"
        }
      ],
      "name": "revokeCertificate",
      "outputs": [],
      "stateMutability": "nonpayable",
      "type": "function"
    },
    {
      "inputs": [
        {
          "internalType": "bytes32",
          "name": "role",
          "type": "bytes32"
        },
        {
          "internalType": "address",
          "name": "account",
          "type": "address"
        }
      ],
      "name": "revokeRole",
      "outputs": [],
      "stateMutability": "nonpayable",
      "type": "function"
    },
    {
      "inputs": [
        {
          "internalType": "bytes4",
          "name": "interfaceId",
          "type": "bytes4"
        }
      ],
      "name": "supportsInterface",
      "outputs": [
        {
          "internalType": "bool",
          "name": "",
          "type": "bool"
        }
      ],
      "stateMutability": "view",
      "type": "function"
    }
  ],
  "bytecode": "0x608060405234801561001057600080fd5b5060405161104138038061104183398101604081905261002f91610118565b61003a60008261006c565b506100657f65cb1d8422cdf0328f26b49e42e9f4524474c431da623cbe0ea455f1b67c9f778261006c565b5050610148565b6000828152602081815260408083206001600160a01b038516845290915281205460ff1661010e576000838152602081815260408083206001600160a01b03861684529091529020805460ff191660011790556100c63390565b6001600160a01b0316826001600160a01b0316847f2f8788117e7eff1d82e926ec794901d17c78024a50270940304540a733656f0d60405160405180910390a4506001610112565b5060005b92915050565b60006020828403121561012a57600080fd5b81516001600160a01b038116811461014157600080fd5b9392505050565b610eea806101576000396000f3fe608060405234801561001057600080fd5b50600436106100a95760003560e01c806369d0b5171161007157806369d0b5171461014f57806391d1485414610176578063a217fddf14610189578063c4d545b514610191578063d547741f146101a4578063db497a7c146101b757600080fd5b806301ffc9a7146100ae578063248a9ca3146100d65780632f2ff15d1461010757806336568abe1461011c57806348292cbd1461012f575b600080fd5b6100c16100bc366004610948565b6101ca565b60405190151581526020015b60405180910390f35b6100f96100e4366004610979565b60009081526020819052604090206001015490565b6040519081526020016100cd565b61011a610115366004610992565b610201565b005b61011a61012a366004610992565b61022c565b61014261013d366004610979565b610264565b6040516100cd9190610a14565b6100f97f65cb1d8422cdf0328f26b49e42e9f4524474c431da623cbe0ea455f1b67c9f7781565b6100c1610184366004610992565b6104b3565b6100f9600081565b61011a61019f366004610b22565b6104dc565b61011a6101b2366004610992565b610683565b61011a6101c5366004610ba4565b6106a8565b60006001600160e01b03198216637965db0b60e01b14806101fb57506301ffc9a760e01b6001600160e01b03198316145b92915050565b60008281526020819052604090206001015461021c81610801565b610226838361080e565b50505050565b6001600160a01b03811633146102555760405163334bd91960e11b815260040160405180910390fd5b61025f82826108a0565b505050565b606060016000838152602001908152602001600020805480602002602001604051908101604052809291908181526020016000905b828210156104a857838290600052602060002090600602016040518060c0016040529081600082015481526020016001820180546102d690610bf7565b80601f016020809104026020016040519081016040528092919081815260200182805461030290610bf7565b801561034f5780601f106103245761010080835404028352916020019161034f565b820191906000526020600020905b81548152906001019060200180831161033257829003601f168201915b5050505050815260200160028201805461036890610bf7565b80601f016020809104026020016040519081016040528092919081815260200182805461039490610bf7565b80156103e15780601f106103b6576101008083540402835291602001916103e1565b820191906000526020600020905b8154815290600101906020018083116103c457829003601f168201915b505050918352505060038201546020820152600482015460ff161515604082015260058201805460609092019161041790610bf7565b80601f016020809104026020016040519081016040528092919081815260200182805461044390610bf7565b80156104905780601f1061046557610100808354040283529160200191610490565b820191906000526020600020905b81548152906001019060200180831161047357829003601f168201915b50505050508152505081526020019060010190610299565b505050509050919050565b6000918252602082815260408084206001600160a01b0393909316845291905290205460ff1690565b7f65cb1d8422cdf0328f26b49e42e9f4524474c431da623cbe0ea455f1b67c9f7761050681610801565b60006040518060c0016040528089815260200188888080601f016020809104026020016040519081016040528093929190818152602001838380828437600092019190915250505090825250604080516020601f890181900481028201810190925287815291810191908890889081908401838280828437600092018290525093855250505060208083018790526040808401839052805180830182528381526060909401939093528b8252600180825292822080548085018255908352918190208451600690930201918255830151929350839290918201906105ea9082610c97565b50604082015160028201906105ff9082610c97565b5060608201516003820155608082015160048201805460ff191691151591909117905560a082015160058201906106369082610c97565b505050877fb41b64ecd828e121dbf35e2083f80a53cd4eeb385c7441e4524418de664df2578888888888604051610671959493929190610d80565b60405180910390a25050505050505050565b60008281526020819052604090206001015461069e81610801565b61022683836108a0565b7f65cb1d8422cdf0328f26b49e42e9f4524474c431da623cbe0ea455f1b67c9f776106d281610801565b60008581526001602052604090205484106107245760405162461bcd60e51b815260206004820152600d60248201526c092dcecc2d8d2c840d2dcc8caf609b1b60448201526064015b60405180910390fd5b600085815260016020526040812080548690811061074457610744610dba565b60009182526020909120600690910201600481015490915060ff161561079e5760405162461bcd60e51b815260206004820152600f60248201526e105b1c9958591e481c995d9bdad959608a1b604482015260640161071b565b60048101805460ff19166001179055600581016107bc848683610dd0565b50857f951228eb475d39aff4d17eb6dc6251fb18102dee0f87550c36f102b5cda6e1558686866040516107f193929190610e91565b60405180910390a2505050505050565b61080b813361090b565b50565b600061081a83836104b3565b610898576000838152602081815260408083206001600160a01b03861684529091529020805460ff191660011790556108503390565b6001600160a01b0316826001600160a01b0316847f2f8788117e7eff1d82e926ec794901d17c78024a50270940304540a733656f0d60405160405180910390a45060016101fb565b5060006101fb565b60006108ac83836104b3565b15610898576000838152602081815260408083206001600160a01b0386168085529252808320805460ff1916905551339286917ff6391f5c32d9c69d2a47ea670b442974b53935d1edc7fd64eb21e047a839171b9190a45060016101fb565b61091582826104b3565b6109445760405163e2517d3f60e01b81526001600160a01b03821660048201526024810183905260440161071b565b5050565b60006020828403121561095a57600080fd5b81356001600160e01b03198116811461097257600080fd5b9392505050565b60006020828403121561098b57600080fd5b5035919050565b600080604083850312156109a557600080fd5b8235915060208301356001600160a01b03811681146109c357600080fd5b809150509250929050565b6000815180845260005b818110156109f4576020818501810151868301820152016109d8565b506000602082860101526020601f19601f83011685010191505092915050565b600060208083018184528085518083526040925060408601915060408160051b87010184880160005b83811015610acb57603f19898403018552815160c08151855288820151818a870152610a6b828701826109ce565b9150508782015185820389870152610a8382826109ce565b6060848101519088015260808085015115159088015260a093840151878203948801949094529150610ab7905081836109ce565b968901969450505090860190600101610a3d565b509098975050505050505050565b60008083601f840112610aeb57600080fd5b50813567ffffffffffffffff811115610b0357600080fd5b602083019150836020828501011115610b1b57600080fd5b9250929050565b60008060008060008060808789031215610b3b57600080fd5b86359550602087013567ffffffffffffffff80821115610b5a57600080fd5b610b668a838b01610ad9565b90975095506040890135915080821115610b7f57600080fd5b50610b8c89828a01610ad9565b979a9699509497949695606090950135949350505050565b60008060008060608587031215610bba57600080fd5b8435935060208501359250604085013567ffffffffffffffff811115610bdf57600080fd5b610beb87828801610ad9565b95989497509550505050565b600181811c90821680610c0b57607f821691505b602082108103610c2b57634e487b7160e01b600052602260045260246000fd5b50919050565b634e487b7160e01b600052604160045260246000fd5b601f82111561025f576000816000526020600020601f850160051c81016020861015610c705750805b601f850160051c820191505b81811015610c8f57828155600101610c7c565b505050505050565b815167ffffffffffffffff811115610cb157610cb1610c31565b610cc581610cbf8454610bf7565b84610c47565b602080601f831160018114610cfa5760008415610ce25750858301515b600019600386901b1c1916600185901b178555610c8f565b600085815260208120601f198616915b82811015610d2957888601518255948401946001909101908401610d0a565b5085821015610d475787850151600019600388901b60f8161c191681555b5050505050600190811b01905550565b81835281816020850137506000828201602090810191909152601f909101601f19169091010190565b606081526000610d94606083018789610d57565b8281036020840152610da7818688610d57565b9150508260408301529695505050505050565b634e487b7160e01b600052603260045260246000fd5b67ffffffffffffffff831115610de857610de8610c31565b610dfc83610df68354610bf7565b83610c47565b6000601f841160018114610e305760008515610e185750838201355b600019600387901b1c1916600186901b178355610e8a565b600083815260209020601f19861690835b82811015610e615786850135825560209485019460019092019101610e41565b5086821015610e7e5760001960f88860031b161c19848701351681555b505060018560011b0183555b5050505050565b838152604060208201526000610eab604083018486610d57565b9594505050505056fea2646970667358221220e7f93e2f652aeef38c742923a6f97d36d2abbfdf1b30b1849289e64a4732d95764736f6c63430008180033",
  "linkReferences": {},
  "deployedLinkReferences": {}
}