{
  "_format": "hh-sol-artifact-1",
  "contractName": "FarmerRegistry",
  "sourceName": "contracts/FarmerRegistry.sol",
  "abi": [
    {
      "inputs": [
        {
          "internalType": "address",
          "name": "admin",
          "type": "address"
        }
      ],
      "stateMutability": "nonpayable",
      "type": "constructor"
    },
    {
      "inputs": [],
      "name": "AccessControlBadConfirmation",
      "type": "error"
    },
    {
      "inputs": [
        {
          "internalType": "address",
          "name": "account",
          "type": "address"
        },
        {
          "internalType": "bytes32",
          "name": "neededRole",
          "type": "bytes32"
        }
      ],
      "name": "AccessControlUnauthorizedAccount",
      "type": "error"
    },
    {
      "anonymous": false,
      "inputs": [
        {
          "indexed": true,
          "internalType": "address",
          "name": "farmer",
          "type": "address"
        },
        {
          "indexed": false,
          "internalType": "enum FarmerRegistry.KYCStatus",
          "name": "status",
          "type": "uint8"
        }
      ],
      "name": "FarmerKYCUpdated",
      "type": "event"
    },
    {
      "anonymous": false,
      "inputs": [
        {
          "indexed": true,
          "internalType": "address",
          "name": "farmer",
          "type": "address"
        },
        {
          "indexed": false,
          "internalType": "string",
          "name": "metadataURI",
          "type": "string"
        }
      ],
      "name": "FarmerRegistered",
      "type": "event"
    },
    {
      "anonymous": false,
      "inputs": [
        {
          "indexed": true,
          "internalType": "bytes32",
          "name": "role",
          "type": "bytes32"
        },
        {
          "indexed": true,
          "internalType": "bytes32",
          "name": "previousAdminRole",
          "type": "bytes32"
        },
        {
          "indexed": true,
          "internalType": "bytes32",
          "name": "newAdminRole",
          "type": "bytes32"
        }
      ],
      "name": "RoleAdminChanged",
      "type": "event"
    },
    {
      "anonymous": false,
      "inputs": [
        {
          "indexed": true,
          "internalType": "bytes32",
          "name": "role",
          "type": "bytes32"
        },
        {
          "indexed": true,
          "internalType": "address",
          "name": "account",
          "type": "address"
        },
        {
          "indexed": true,
          "internalType": "address",
          "name": "sender",
          "type": "address"
        }
      ],
      "name": "RoleGranted",
      "type": "event"
    },
    {
      "anonymous": false,
      "inputs": [
        {
          "indexed": true,
          "internalType": "bytes32",
          "name": "role",
          "type": "bytes32"
        },
        {
          "indexed": true,
          "internalType": "address",
          "name": "account",
          "type": "address"
        },
        {
          "indexed": true,
          "internalType": "address",
          "name": "sender",
          "type": "address"
        }
      ],
      "name": "RoleRevoked",
      "type": "event"
    },
    {
      "inputs": [],
      "name": "ADMIN_ROLE",
      "outputs": [
        {
          "internalType": "bytes32",
          "name": "",
          "type": "bytes32"
        }
      ],
      "stateMutability": "view",
      "type": "function"
    },
    {
      "inputs": [],
      "name": "DEFAULT_ADMIN_ROLE",
      "outputs": [
        {
          "internalType": "bytes32",
          "name": "",
          "type": "bytes32"
        }
      ],
      "stateMutability": "view",
      "type": "function"
    },
    {
      "inputs": [
        {
          "internalType": "address",
          "name": "farmer",
          "type": "address"
        }
      ],
      "name": "getFarmer",
      "outputs": [
        {
          "components": [
            {
              "internalType": "address",
              "name": "wallet",
              "type": "address"
            },
            {
              "internalType": "string",
              "name": "metadataURI",
              "type": "string"
            },
            {
              "internalType": "enum FarmerRegistry.KYCStatus",
              "name": "kycStatus",
              "type": "uint8"
            }
          ],
          "internalType": "struct FarmerRegistry.Farmer",
          "name": "",
          "type": "tuple"
        }
      ],
      "stateMutability": "view",
      "type": "function"
    },
    {
      "inputs": [
        {
          "internalType": "bytes32",
          "name": "role",
          "type": "bytes32"
        }
      ],
      "name": "getRoleAdmin",
      "outputs": [
        {
          "internalType": "bytes32",
          "name": "",
          "type": "bytes32"
        }
      ],
      "stateMutability": "view",
      "type": "function"
    },
    {
      "inputs": [
        {
          "internalType": "bytes32",
          "name": "role",
          "type": "bytes32"
        },
        {
          "internalType": "address",
          "name": "account",
          "type": "address"
        }
      ],
      "name": "grantRole",
      "outputs": [],
      "stateMutability": "nonpayable",
      "type": "function"
    },
    {
      "inputs": [
        {
          "internalType": "bytes32",
          "name": "role",
          "type": "bytes32"
        },
        {
          "internalType": "address",
          "name": "account",
          "type": "address"
        }
      ],
      "name": "hasRole",
      "outputs": [
        {
          "internalType": "bool",
          "name": "",
          "type": "bool"
        }
      ],
      "stateMutability": "view",
      "type": "function"
    },
    {
      "inputs": [
        {
          "internalType": "string",
          "name": "metadataURI",
          "type": "string"
        }
      ],
      "name": "registerFarmer",
      "outputs": [],
      "stateMutability": "nonpayable",
      "type": "function"
    },
    {
      "inputs": [
        {
          "internalType": "bytes32",
          "name": "role",
          "type": "bytes32"
        },
        {
          "internalType": "address",
          "name": "callerConfirmation",
          "type": "address"
        }
      ],
      "name": "renounceRole",
      "outputs": [],
      "stateMutability": "nonpayable",
      "type": "function"
    },
    {
      "inputs": [
        {
          "internalType": "bytes32",
          "name": "role",
          "type": "bytes32"
        },
        {
          "internalType": "address",
          "name": "account",
          "type": "address"
        }
      ],
      "name": "revokeRole",
      "outputs": [],
      "stateMutability": "nonpayable",
      "type": "function"
    },
    {
      "inputs": [
        {
          "internalType": "bytes4",
          "name": "interfaceId",
          "type": "bytes4"
        }
      ],
      "name": "supportsInterface",
      "outputs": [
        {
          "internalType": "bool",
          "name": "",
          "type": "bool"
        }
      ],
      "stateMutability": "view",
      "type": "function"
    },
    {
      "inputs": [
        {
          "internalType": "address",
          "name": "farmer",
          "type": "address"
        },
        {
          "internalType": "enum FarmerRegistry.KYCStatus",
          "name": "status",
          "type": "uint8"
        }
      ],
      "name": "updateKYC",
      "outputs": [],
      "stateMutability": "nonpayable",
      "type": "function"
    }
  ],
  "bytecode": "0x608060405234801561001057600080fd5b50604051610d4a380380610d4a83398101604081905261002f91610118565b61003a60008261006c565b506100657fa49807205ce4d355092ef5a8a18f56e8913cf4a201fbe287825b095693c217758261006c565b5050610148565b6000828152602081815260408083206001600160a01b038516845290915281205460ff1661010e576000838152602081815260408083206001600160a01b03861684529091529020805460ff191660011790556100c63390565b6001600160a01b0316826001600160a01b0316847f2f8788117e7eff1d82e926ec794901d17c78024a50270940304540a733656f0d60405160405180910390a4506001610112565b5060005b92915050565b60006020828403121561012a57600080fd5b81516001600160a01b038116811461014157600080fd5b9392505050565b610bf3806101576000396000f3fe608060405234801561001057600080fd5b50600436106100a95760003560e01c806375b238fc1161007157806375b238fc146101425780637ba7295e1461016957806391d148541461017c578063a217fddf1461018f578063d547741f14610197578063e7609c16146101aa57600080fd5b806301ffc9a7146100ae578063248a9ca3146100d65780632f2ff15d1461010757806336568abe1461011c5780637051634a1461012f575b600080fd5b6100c16100bc366004610811565b6101ca565b60405190151581526020015b60405180910390f35b6100f96100e4366004610842565b60009081526020819052604090206001015490565b6040519081526020016100cd565b61011a610115366004610877565b610201565b005b61011a61012a366004610877565b61022c565b61011a61013d3660046108a3565b610264565b6100f97fa49807205ce4d355092ef5a8a18f56e8913cf4a201fbe287825b095693c2177581565b61011a6101773660046108de565b610382565b6100c161018a366004610877565b6104e4565b6100f9600081565b61011a6101a5366004610877565b61050d565b6101bd6101b8366004610950565b610532565b6040516100cd91906109a3565b60006001600160e01b03198216637965db0b60e01b14806101fb57506301ffc9a760e01b6001600160e01b03198316145b92915050565b60008281526020819052604090206001015461021c81610690565b610226838361069d565b50505050565b6001600160a01b03811633146102555760405163334bd91960e11b815260040160405180910390fd5b61025f828261072f565b505050565b7fa49807205ce4d355092ef5a8a18f56e8913cf4a201fbe287825b095693c2177561028e81610690565b6001600160a01b03838116600090815260016020526040902054166102ed5760405162461bcd60e51b815260206004820152601060248201526f11985c9b595c881b9bdd08199bdd5b9960821b60448201526064015b60405180910390fd5b8160016000856001600160a01b03166001600160a01b0316815260200190815260200160002060020160006101000a81548160ff021916908360028111156103375761033761096b565b0217905550826001600160a01b03167f82a1ccaba5df039b4a50434ed1ca87d01663e12adc837923388978868e392fa1836040516103759190610a20565b60405180910390a2505050565b33600090815260016020526040902080546001600160a01b0316156103e95760405162461bcd60e51b815260206004820152601960248201527f4661726d657220616c726561647920726567697374657265640000000000000060448201526064016102e4565b6040518060600160405280336001600160a01b0316815260200184848080601f0160208091040260200160405190810160405280939291908181526020018383808284376000920182905250938552505050602091820181905233815260018083526040909120835181546001600160a01b0319166001600160a01b03909116178155918301519082019061047e9082610ace565b5060408201518160020160006101000a81548160ff021916908360028111156104a9576104a961096b565b0217905550506040513391507f42558426a946ab6e527d7f548e7bd3e34c2a7ddde555007464cdfbb5f58665f8906103759086908690610b8e565b6000918252602082815260408084206001600160a01b0393909316845291905290205460ff1690565b60008281526020819052604090206001015461052881610690565b610226838361072f565b61053a6107d7565b6001600160a01b03828116600090815260016020526040902054166105945760405162461bcd60e51b815260206004820152601060248201526f11985c9b595c881b9bdd08199bdd5b9960821b60448201526064016102e4565b6001600160a01b03808316600090815260016020818152604092839020835160608101909452805490941683529083018054929392918401916105d690610a44565b80601f016020809104026020016040519081016040528092919081815260200182805461060290610a44565b801561064f5780601f106106245761010080835404028352916020019161064f565b820191906000526020600020905b81548152906001019060200180831161063257829003601f168201915b505050918352505060028281015460209092019160ff16908111156106765761067661096b565b60028111156106875761068761096b565b90525092915050565b61069a813361079a565b50565b60006106a983836104e4565b610727576000838152602081815260408083206001600160a01b03861684529091529020805460ff191660011790556106df3390565b6001600160a01b0316826001600160a01b0316847f2f8788117e7eff1d82e926ec794901d17c78024a50270940304540a733656f0d60405160405180910390a45060016101fb565b5060006101fb565b600061073b83836104e4565b15610727576000838152602081815260408083206001600160a01b0386168085529252808320805460ff1916905551339286917ff6391f5c32d9c69d2a47ea670b442974b53935d1edc7fd64eb21e047a839171b9190a45060016101fb565b6107a482826104e4565b6107d35760405163e2517d3f60e01b81526001600160a01b0382166004820152602481018390526044016102e4565b5050565b604051806060016040528060006001600160a01b03168152602001606081526020016000600281111561080c5761080c61096b565b905290565b60006020828403121561082357600080fd5b81356001600160e01b03198116811461083b57600080fd5b9392505050565b60006020828403121561085457600080fd5b5035919050565b80356001600160a01b038116811461087257600080fd5b919050565b6000806040838503121561088a57600080fd5b8235915061089a6020840161085b565b90509250929050565b600080604083850312156108b657600080fd5b6108bf8361085b565b91506020830135600381106108d357600080fd5b809150509250929050565b600080602083850312156108f157600080fd5b823567ffffffffffffffff8082111561090957600080fd5b818501915085601f83011261091d57600080fd5b81358181111561092c57600080fd5b86602082850101111561093e57600080fd5b60209290920196919550909350505050565b60006020828403121561096257600080fd5b61083b8261085b565b634e487b7160e01b600052602160045260246000fd5b6003811061099f57634e487b7160e01b600052602160045260246000fd5b9052565b6000602080835260018060a01b038451166020840152602084015160606040850152805180608086015260005b818110156109ec5782810184015186820160a0015283016109d0565b50600060a0828701015260408601519250610a0a6060860184610981565b601f01601f19169390930160a001949350505050565b602081016101fb8284610981565b634e487b7160e01b600052604160045260246000fd5b600181811c90821680610a5857607f821691505b602082108103610a7857634e487b7160e01b600052602260045260246000fd5b50919050565b601f82111561025f576000816000526020600020601f850160051c81016020861015610aa75750805b601f850160051c820191505b81811015610ac657828155600101610ab3565b505050505050565b815167ffffffffffffffff811115610ae857610ae8610a2e565b610afc81610af68454610a44565b84610a7e565b602080601f831160018114610b315760008415610b195750858301515b600019600386901b1c1916600185901b178555610ac6565b600085815260208120601f198616915b82811015610b6057888601518255948401946001909101908401610b41565b5085821015610b7e5787850151600019600388901b60f8161c191681555b5050505050600190811b01905550565b60208152816020820152818360408301376000818301604090810191909152601f909201601f1916010191905056fea264697066735822122064704a549bbbf3ed50af1c544ce04164d82ceb51fcf2fd9b758c216a7906ae5b64736f6c63430008180033",
  "linkReferences": {},
  "deployedLinkReferences": {}
}