{
  "_format": "hh-sol-artifact-1",
  "contractName": "OwnershipTransfer",
  "sourceName": "contracts/OwnershipTransfer.sol",
  "abi": [
    {
      "inputs": [
        {
          "internalType": "address",
          "name": "admin",
          "type": "address"
        }
      ],
      "stateMutability": "nonpayable",
      "type": "constructor"
    },
    {
      "inputs": [],
      "name": "AccessControlBadConfirmation",
      "type": "error"
    },
    {
      "inputs": [
        {
          "internalType": "address",
          "name": "account",
          "type": "address"
        },
        {
          "internalType": "bytes32",
          "name": "neededRole",
          "type": "bytes32"
        }
      ],
      "name": "AccessControlUnauthorizedAccount",
      "type": "error"
    },
    {
      "anonymous": false,
      "inputs": [
        {
          "indexed": true,
          "internalType": "bytes32",
          "name": "role",
          "type": "bytes32"
        },
        {
          "indexed": true,
          "internalType": "bytes32",
          "name": "previousAdminRole",
          "type": "bytes32"
        },
        {
          "indexed": true,
          "internalType": "bytes32",
          "name": "newAdminRole",
          "type": "bytes32"
        }
      ],
      "name": "RoleAdminChanged",
      "type": "event"
    },
    {
      "anonymous": false,
      "inputs": [
        {
          "indexed": true,
          "internalType": "bytes32",
          "name": "role",
          "type": "bytes32"
        },
        {
          "indexed": true,
          "internalType": "address",
          "name": "account",
          "type": "address"
        },
        {
          "indexed": true,
          "internalType": "address",
          "name": "sender",
          "type": "address"
        }
      ],
      "name": "RoleGranted",
      "type": "event"
    },
    {
      "anonymous": false,
      "inputs": [
        {
          "indexed": true,
          "internalType": "bytes32",
          "name": "role",
          "type": "bytes32"
        },
        {
          "indexed": true,
          "internalType": "address",
          "name": "account",
          "type": "address"
        },
        {
          "indexed": true,
          "internalType": "address",
          "name": "sender",
          "type": "address"
        }
      ],
      "name": "RoleRevoked",
      "type": "event"
    },
    {
      "anonymous": false,
      "inputs": [
        {
          "indexed": true,
          "internalType": "bytes32",
          "name": "batchId",
          "type": "bytes32"
        },
        {
          "indexed": true,
          "internalType": "address",
          "name": "from",
          "type": "address"
        },
        {
          "indexed": true,
          "internalType": "address",
          "name": "to",
          "type": "address"
        },
        {
          "indexed": false,
          "internalType": "string",
          "name": "metadataURI",
          "type": "string"
        },
        {
          "indexed": false,
          "internalType": "uint256",
          "name": "timestamp",
          "type": "uint256"
        }
      ],
      "name": "TransferLogged",
      "type": "event"
    },
    {
      "inputs": [],
      "name": "DEFAULT_ADMIN_ROLE",
      "outputs": [
        {
          "internalType": "bytes32",
          "name": "",
          "type": "bytes32"
        }
      ],
      "stateMutability": "view",
      "type": "function"
    },
    {
      "inputs": [],
      "name": "TRANSFER_AGENT_ROLE",
      "outputs": [
        {
          "internalType": "bytes32",
          "name": "",
          "type": "bytes32"
        }
      ],
      "stateMutability": "view",
      "type": "function"
    },
    {
      "inputs": [
        {
          "internalType": "bytes32",
          "name": "",
          "type": "bytes32"
        }
      ],
      "name": "currentOwner",
      "outputs": [
        {
          "internalType": "address",
          "name": "",
          "type": "address"
        }
      ],
      "stateMutability": "view",
      "type": "function"
    },
    {
      "inputs": [
        {
          "internalType": "bytes32",
          "name": "role",
          "type": "bytes32"
        }
      ],
      "name": "getRoleAdmin",
      "outputs": [
        {
          "internalType": "bytes32",
          "name": "",
          "type": "bytes32"
        }
      ],
      "stateMutability": "view",
      "type": "function"
    },
    {
      "inputs": [
        {
          "internalType": "bytes32",
          "name": "batchId",
          "type": "bytes32"
        }
      ],
      "name": "getTransfers",
      "outputs": [
        {
          "components": [
            {
              "internalType": "bytes32",
              "name": "batchId",
              "type": "bytes32"
            },
            {
              "internalType": "address",
              "name": "from",
              "type": "address"
            },
            {
              "internalType": "address",
              "name": "to",
              "type": "address"
            },
            {
              "internalType": "string",
              "name": "metadataURI",
              "type": "string"
            },
            {
              "internalType": "uint256",
              "name": "timestamp",
              "type": "uint256"
            }
          ],
          "internalType": "struct OwnershipTransfer.TransferEvent[]",
          "name": "",
          "type": "tuple[]"
        }
      ],
      "stateMutability": "view",
      "type": "function"
    },
    {
      "inputs": [
        {
          "internalType": "bytes32",
          "name": "role",
          "type": "bytes32"
        },
        {
          "internalType": "address",
          "name": "account",
          "type": "address"
        }
      ],
      "name": "grantRole",
      "outputs": [],
      "stateMutability": "nonpayable",
      "type": "function"
    },
    {
      "inputs": [
        {
          "internalType": "bytes32",
          "name": "role",
          "type": "bytes32"
        },
        {
          "internalType": "address",
          "name": "account",
          "type": "address"
        }
      ],
      "name": "hasRole",
      "outputs": [
        {
          "internalType": "bool",
          "name": "",
          "type": "bool"
        }
      ],
      "stateMutability": "view",
      "type": "function"
    },
    {
      "inputs": [
        {
          "internalType": "bytes32",
          "name": "batchId",
          "type": "bytes32"
        },
        {
          "internalType": "address",
          "name": "owner",
          "type": "address"
        }
      ],
      "name": "initializeOwner",
      "outputs": [],
      "stateMutability": "nonpayable",
      "type": "function"
    },
    {
      "inputs": [
        {
          "internalType": "bytes32",
          "name": "batchId",
          "type": "bytes32"
        },
        {
          "internalType": "address",
          "name": "to",
          "type": "address"
        },
        {
          "internalType": "string",
          "name": "metadataURI",
          "type": "string"
        }
      ],
      "name": "logTransfer",
      "outputs": [],
      "stateMutability": "nonpayable",
      "type": "function"
    },
    {
      "inputs": [
        {
          "internalType": "bytes32",
          "name": "role",
          "type": "bytes32"
        },
        {
          "internalType": "address",
          "name": "callerConfirmation",
          "type": "address"
        }
      ],
      "name": "renounceRole",
      "outputs": [],
      "stateMutability": "nonpayable",
      "type": "function"
    },
    {
      "inputs": [
        {
          "internalType": "bytes32",
          "name": "role",
          "type": "bytes32"
        },
        {
          "internalType": "address",
          "name": "account",
          "type": "address"
        }
      ],
      "name": "revokeRole",
      "outputs": [],
      "stateMutability": "nonpayable",
      "type": "function"
    },
    {
      "inputs": [
        {
          "internalType": "bytes4",
          "name": "interfaceId",
          "type": "bytes4"
        }
      ],
      "name": "supportsInterface",
      "outputs": [
        {
          "internalType": "bool",
          "name": "",
          "type": "bool"
        }
      ],
      "stateMutability": "view",
      "type": "function"
    }
  ],
  "bytecode": "0x608060405234801561001057600080fd5b50604051610d7c380380610d7c83398101604081905261002f91610118565b61003a60008261006c565b506100657f90601cb45097851a246a5f8a72fbb27b3ef393b2a92d8fdd7aa24b1be6b2ed3b8261006c565b5050610148565b6000828152602081815260408083206001600160a01b038516845290915281205460ff1661010e576000838152602081815260408083206001600160a01b03861684529091529020805460ff191660011790556100c63390565b6001600160a01b0316826001600160a01b0316847f2f8788117e7eff1d82e926ec794901d17c78024a50270940304540a733656f0d60405160405180910390a4506001610112565b5060005b92915050565b60006020828403121561012a57600080fd5b81516001600160a01b038116811461014157600080fd5b9392505050565b610c25806101576000396000f3fe608060405234801561001057600080fd5b50600436106100b45760003560e01c80639d8f61f4116100715780639d8f61f41461018e578063a217fddf146101a1578063a372847f146101a9578063d547741f146101c9578063db1c13d8146101dc578063fb22de061461020357600080fd5b806301ffc9a7146100b9578063248a9ca3146100e157806327cc5739146101125780632f2ff15d1461015357806336568abe1461016857806391d148541461017b575b600080fd5b6100cc6100c7366004610863565b610216565b60405190151581526020015b60405180910390f35b6101046100ef366004610894565b60009081526020819052604090206001015490565b6040519081526020016100d8565b61013b610120366004610894565b6001602052600090815260409020546001600160a01b031681565b6040516001600160a01b0390911681526020016100d8565b6101666101613660046108c9565b61024d565b005b6101666101763660046108c9565b610278565b6100cc6101893660046108c9565b6102b0565b61016661019c3660046108f5565b6102d9565b610104600081565b6101bc6101b7366004610894565b610507565b6040516100d8919061097c565b6101666101d73660046108c9565b610645565b6101047f90601cb45097851a246a5f8a72fbb27b3ef393b2a92d8fdd7aa24b1be6b2ed3b81565b6101666102113660046108c9565b61066a565b60006001600160e01b03198216637965db0b60e01b148061024757506301ffc9a760e01b6001600160e01b03198316145b92915050565b6000828152602081905260409020600101546102688161071c565b6102728383610729565b50505050565b6001600160a01b03811633146102a15760405163334bd91960e11b815260040160405180910390fd5b6102ab82826107bb565b505050565b6000918252602082815260408084206001600160a01b0393909316845291905290205460ff1690565b6000848152600160205260409020546001600160a01b0316806103435760405162461bcd60e51b815260206004820152601b60248201527f4261746368206f776e6572206e6f7420696e697469616c697a6564000000000060448201526064015b60405180910390fd5b336001600160a01b0382161461039b5760405162461bcd60e51b815260206004820152601f60248201527f4f6e6c792063757272656e74206f776e65722063616e207472616e7366657200604482015260640161033a565b60006040518060a00160405280878152602001836001600160a01b03168152602001866001600160a01b0316815260200185858080601f016020809104026020016040519081016040528093929190818152602001838380828437600092018290525093855250504260209384015250888152600280835260408083208054600181810183559185529385902086516005909502019384559385015193830180546001600160a01b039586166001600160a01b031991821617909155908501519183018054929094169116179091556060820151919250829160038201906104839082610af6565b50608091909101516004909101556000868152600160205260409081902080546001600160a01b0319166001600160a01b0388811691821790925591519084169088907f11512538bb7079474ff4b92432bc59e02e7796b9ec6bf3cf96c3da726376e127906104f790899089904290610bb6565b60405180910390a4505050505050565b606060026000838152602001908152602001600020805480602002602001604051908101604052809291908181526020016000905b8282101561063a5760008481526020908190206040805160a081018252600586029092018054835260018101546001600160a01b039081169484019490945260028101549093169082015260038201805491929160608401919061059f90610a6c565b80601f01602080910402602001604051908101604052809291908181526020018280546105cb90610a6c565b80156106185780601f106105ed57610100808354040283529160200191610618565b820191906000526020600020905b8154815290600101906020018083116105fb57829003601f168201915b505050505081526020016004820154815250508152602001906001019061053c565b505050509050919050565b6000828152602081905260409020600101546106608161071c565b61027283836107bb565b7f90601cb45097851a246a5f8a72fbb27b3ef393b2a92d8fdd7aa24b1be6b2ed3b6106948161071c565b6000838152600160205260409020546001600160a01b0316156106ed5760405162461bcd60e51b815260206004820152601160248201527013dddb995c88185b1c9958591e481cd95d607a1b604482015260640161033a565b5060009182526001602052604090912080546001600160a01b0319166001600160a01b03909216919091179055565b6107268133610826565b50565b600061073583836102b0565b6107b3576000838152602081815260408083206001600160a01b03861684529091529020805460ff1916600117905561076b3390565b6001600160a01b0316826001600160a01b0316847f2f8788117e7eff1d82e926ec794901d17c78024a50270940304540a733656f0d60405160405180910390a4506001610247565b506000610247565b60006107c783836102b0565b156107b3576000838152602081815260408083206001600160a01b0386168085529252808320805460ff1916905551339286917ff6391f5c32d9c69d2a47ea670b442974b53935d1edc7fd64eb21e047a839171b9190a4506001610247565b61083082826102b0565b61085f5760405163e2517d3f60e01b81526001600160a01b03821660048201526024810183905260440161033a565b5050565b60006020828403121561087557600080fd5b81356001600160e01b03198116811461088d57600080fd5b9392505050565b6000602082840312156108a657600080fd5b5035919050565b80356001600160a01b03811681146108c457600080fd5b919050565b600080604083850312156108dc57600080fd5b823591506108ec602084016108ad565b90509250929050565b6000806000806060858703121561090b57600080fd5b8435935061091b602086016108ad565b9250604085013567ffffffffffffffff8082111561093857600080fd5b818701915087601f83011261094c57600080fd5b81358181111561095b57600080fd5b88602082850101111561096d57600080fd5b95989497505060200194505050565b600060208083018184528085518083526040925060408601915060408160051b8701018488016000805b84811015610a4757898403603f19018652825180518552888101516001600160a01b039081168a87015288820151168886015260608082015160a091870182905280519187018290528491905b81831015610a11578083018c015188840160c00152918b01916109f3565b5086810160c090810186905260809384015193880193909352978a0197601f01601f1916909501019350918701916001016109a6565b50919998505050505050505050565b634e487b7160e01b600052604160045260246000fd5b600181811c90821680610a8057607f821691505b602082108103610aa057634e487b7160e01b600052602260045260246000fd5b50919050565b601f8211156102ab576000816000526020600020601f850160051c81016020861015610acf5750805b601f850160051c820191505b81811015610aee57828155600101610adb565b505050505050565b815167ffffffffffffffff811115610b1057610b10610a56565b610b2481610b1e8454610a6c565b84610aa6565b602080601f831160018114610b595760008415610b415750858301515b600019600386901b1c1916600185901b178555610aee565b600085815260208120601f198616915b82811015610b8857888601518255948401946001909101908401610b69565b5085821015610ba65787850151600019600388901b60f8161c191681555b5050505050600190811b01905550565b604081528260408201528284606083013760006060848301015260006060601f19601f860116830101905082602083015294935050505056fea2646970667358221220a81fa899b27568c2c16281029964040ab43d20526527faa03ff061f951b6b6ae64736f6c63430008180033",
  "linkReferences": {},
  "deployedLinkReferences": {}
}